:100000000C94C4030C940B040C940B040C940B047C
:100010000C940B040C940B040C940B040C940B0424
:100020000C940B040C940B040C94321F0C940620BB
:100030000C94891A0C940B040C940B040C940B0470
:100040000C940B040C940B040C940B040C940B04F4
:100050000C940B040C94E01A0C940B040C940B04F9
:100060000C940B040C940B040C940B040C940B04D4
:100070000C940B040C940B040C940B040C940B04C4
:100080000C940B040C940B040C940B040C940B04B4
:100090000C940B040C940B040C940B040C940B04A4
:1000A0000C940B040C940B040C940B042048444750
:1000B0003A203237302020414C543A31302C303005
:1000C00030004175746F50696C6F74005F006000A0
:1000D000610057005C005D005E00550059005A0049
:1000E0005B00560062000000630058005F00600083
:1000F000610057005C005D005E00550059005A0029
:100100005B00560062000000630058005F00600062
:10011000610057005C005D005E00550059005A0008
:100120005B005600620000006300580000AE00AFA4
:1001300000DA0281FFD9F1DB20A4A62EAF00A0C017
:1001400000A1C800AED580A81FD300408D142000A8
:100150000000000000003E5B4F5B3E003E6B4F6BBB
:100160003E001C3E7C3E1C00183C7E3C18001C5788
:100170007D571C001C5E7F5E1C0000183C180000B0
:10018000FFE7C3E7FF00001824180000FFE7DBE7E4
:10019000FF0030483A060E00262979292600407FC4
:1001A00005050700407F05253F005A3CE73C5A0003
:1001B0007F3E1C1C0800081C1C3E7F0014227F226E
:1001C00014005F5F005F5F0006097F017F0000662B
:1001D00089956A0060606060600094A2FFA294004C
:1001E00008047E04080010207E20100008082A1C45
:1001F0000800081C2A0808001E10101010000C1E11
:100200000C1E0C0030383E383000060E3E0E060044
:1002100000000000000000005F0000000007000771
:100220000000147F147F1400242A7F2A1200231355
:100230000864620036495620500000080703000099
:10024000001C224100000041221C00002A1C7F1CCF
:100250002A0008083E0808000080703000000808E6
:100260000808080000006060000020100804020078
:100270003E5149453E0000427F40000072494949D5
:1002800046002141494D33001814127F10002745C4
:10029000454539003C4A49493100412111090700CF
:1002A000364949493600464949291E0000001400D4
:1002B0000000004034000000000814224100141423
:1002C0001414140000412214080002015909060008
:1002D0003E415D594E007C1211127C007F49494914
:1002E00036003E41414122007F4141413E007F496D
:1002F000494941007F09090901003E41415173000C
:100300007F0808087F0000417F4100002040413FF6
:1003100001007F08142241007F40404040007F02DE
:100320001C027F007F0408107F003E4141413E00D7
:100330007F09090906003E4151215E007F09192904
:10034000460026494949320003017F0103003F402E
:1003500040403F001F2040201F003F4038403F00EA
:100360006314081463000304780403006159494DC1
:100370004300007F41414100020408102000004179
:1003800041417F000402010204004040404040001F
:100390000003070800002054547840007F2844449C
:1003A0003800384444442800384444287F003854F6
:1003B0005454180000087E09020018A4A49C780078
:1003C0007F080404780000447D4000002040403D48
:1003D00000007F102844000000417F4000007C04A2
:1003E000780478007C0804047800384444443800D9
:1003F000FC182424180018242418FC007C08040489
:10040000080048545454240004043F4424003C4051
:1004100040207C001C2040201C003C4030403C0020
:100420004428102844004C9090907C004464544C24
:100430004400000836410000000077000000004141
:10044000360800000201020402003C2623263C007C
:10045000000000000000404040F0F8F8FF38FFF8CE
:10046000F83FF8F8FF38FFF8F8F04040400000008F
:1004700000000080C0C0C0800000C0C0800000003C
:1004800080C0C000C0C0000080C0C00000000000EC
:10049000C0C0C0C0C000C0C000000000000000001C
:1004A000000000000000000000000000000000004C
:1004B000000000000000000000000000000000003C
:1004C000000000000000000000000000000000C06C
:1004D000F0F8FC3E1E06010000007F4141417F0014
:1004E0007F4141417F000080C0E07E5B4F5BFEC0EA
:1004F0000000C000DCD7DEDEDED7DC00C00000007C
:1005000000000000000000000000000000000000EB
:10051000000000000000494949FFFFFFFFE0DFBF86
:10052000BF00BFBFDFE0FFFFFFFF494949000000F8
:1005300000001F3F6060E0BF1F007F7F071E381E66
:10054000077F7F007F7F0E1F3B716000000000006F
:100550007F7F0C0C0C007E7E007F7E0303007F7E7D
:1005600003037E7E03037F7E000F3E703C063C70DB
:100570003E0F00327B49493F7E007F7E0303001E11
:100580003F69696F260000000000000000000003C2
:100590000F1F3F3C7870600000007F4141417F00A9
:1005A0007F4141417F00307B7F7830202030787F51
:1005B0003B0003000F7F0F0F0F7F0F0003000000B1
:1005C000000000000000000000000000000000002B
:1005D000000000000000010101070F0F7F0F7F0FD7
:1005E0000F7E0F0F7F0F7F0F0F070101010000002B
:1005F00000000000000000010100000000000000F9
:1006000000000000000000000000000000000000EA
:1006100000000000000000000000000000000000DA
:1006200000000000000000000000000000000000CA
:1006300000000000000000000000000000000000BA
:1006400000000000000000000000000000000000AA
:10065000000000000000000000000000000000009A
:10066000000000000000000000000000000000008A
:10067000000000000000000000000000000000007A
:10068000000000000000000000000000000000006A
:1006900014034100750074006F00500069006C0085
:1006A0006F00740000001C0341006E0064007200C3
:1006B000650077004600690073006300680065000C
:1006C000720000000403090409023B00020100A0BB
:1006D000FA090400000103010100092111010001D0
:1006E0002240000705810308000A090401000103F4
:1006F00000000009211101000122320007058203D8
:1007000020000A1201100100000008EDFE000001A7
:10071000000102000105010980A101850319012AD8
:10072000B700150126B700950175108100C0050CB2
:100730000901A101850419012AA002150126A002C0
:10074000950175108100C005010906A10105071971
:10075000E029E715002501950875018102950175CD
:100760000881010507190029FF150026FF009506DD
:100770007508810005081901290595057501910283
:10078000950175039101C00011241FBECFEFDAE07F
:10079000DEBFCDBF04B603FE27C0809172049091E6
:1007A0007304A0917404B09175048730904BA740F6
:1007B000B04BD1F41092720410927304109274042E
:1007C0001092750414BE84B7877F84BF0FB6F89467
:1007D000A89580916000886180936000109260000D
:1007E0000FBEE0E0F8E3099511E0A0E0B1E0E0EE33
:1007F000F4E402C005900D92AA39B107D9F724E0BC
:10080000AAE9B1E001C01D92A237B207E1F70E9448
:100810006E1C0C944A220C94000080E0089560E065
:1008200082EC90E00E94880A60E08CEA90E00C94F0
:100830009A0A811108C08FE4611101C080E50E940D
:10084000FA1081E008958130E1F789EA6111F7CF6C
:100850008AEAF5CF81E0089581E008950C942C0494
:1008600008950C9430041F93CF93DF9300D000D0F1
:100870000F92CDB7DEB749835A836B833091ED0178
:1008800089819A8131111DC06623B9F02223A9F014
:100890000E94D017182F682F89819A810E947D1796
:1008A00069817A81812F0F900F900F900F900F9098
:1008B000DF91CF911F910C940F050E94A917182F5B
:1008C000EFCF0E94D01769817A81EDCFFC01262FEE
:1008D000408151816281738184810C943304CF9370
:1008E000DF93EC0160E00E946604BE01DF91CF91CE
:1008F0000C9431040E94EA060E9400050C940F0734
:100900000C94120708950E945F130E9482042FEF37
:1009100084E39CE0215080409040E1F700C000005B
:100920000C94041B0F931F93CF93DF938C0161E012
:100930000E946604EC01B8010E942E048823A9F1EC
:10094000B801CE010E946E0C882379F1B801CE0166
:100950000E94C00C882349F1B801CE010E94E30D2A
:10096000882319F1F8018281882361F0CB35FDE5F8
:10097000DF0721F170F4C115ECE5DE07A1F0CF3DF2
:10098000DC45C9F0C801DF91CF911F910F910C9404
:100990002A04CC358DE5D807A1F0CD35DD4591F79A
:1009A0000E947718EFCF0E94830480E0DF91CF91FF
:1009B0001F910F9108950E94DD19F7CF0E948018B2
:1009C000E1CF0E948318DECF08950C94E40481E007
:1009D0000895CF93C82F0E94E704882349F0C0FFF1
:1009E00009C02F9AC1FF08C0889AC2FF07C02A9A7F
:1009F000CF9108952F98F6CF8898F7CF2A98F8CFFF
:100A0000279A2F98809A8898229A2A980895CF93A7
:100A1000C82F0E94E5048C2FCF910C94E90424E0A8
:100A2000829FC0011124FC01E70FF11DEE0FFF1F93
:100A3000EE0FFF1FE60FF11DEE0FFF1FE453FF4FF8
:100A4000859194910895CF93DF930E940F050E94A2
:100A50000F06EC01811522E59207E8F5811531E5D5
:100A6000930708F0ACC0883E910510F5803E9105D3
:100A700070F5883A910570F4853A910508F078C0D0
:100A80008130910521F1009711F1049700F5D0E034
:100A9000C0E01DC08F3B9105D0F7C85AD0E0CC0F05
:100AA000DD1FCC5EDE4F0990D881C02DD4640FC00D
:100AB000811540E5940708F066C0C11580E4D807A9
:100AC00008F05EC0CE019A9581159F4100F7CE01D6
:100AD000DF91CF910895811536E5930718F58115BB
:100AE00045E5940708F083C0C11584E5D80708F0F0
:100AF00079C09C2F969596959E0123703327C1153A
:100B0000D34508F461C0C1E0D0E002C0CC0FDD1FC6
:100B10002A95E2F730E2939FC0011124C82BD92B0C
:100B2000DA68D5CFC1158AE5D80778F4C11599E5FB
:100B3000D90708F066C0C11528E5D20708F4A7CF89
:100B4000DC2FCC27C06FD06AC2CFCE019056811562
:100B5000904208F09CCF8D2F8F710E94A60690E0E6
:100B6000982F882788279F719C012C2BE90147C06B
:100B7000C55AD0E0CE5BDE4FC881D0E0D064A7CFAD
:100B8000DF70D06AA4CFE4E096958795EA95E1F707
:100B900083702C2F26952695237040E2249F900188
:100BA0001124382B8C2F8370C1E0D0E002C0CC0F11
:100BB000DD1F8A95E2F7C22BD32BDC6888CFD82FB4
:100BC000CC27C16FD06A83CFC1E0D0E002C0CC0F88
:100BD000DD1F2A95E2F720E2929FC0011124C82B65
:100BE000D92BEBCFDC2FCC27C46FD06A70CF0E94FB
:100BF000A606C82FD0E0DC2FCC27CC27DF71D0622F
:100C000066CF8C2F8F700E94A60634E0D695C795CC
:100C10003A95E1F7CF709C2FEC01D06958CF82381C
:100C20009105B1F1B0F48133910509F475C048F430
:100C30008932910509F469C08A32910509F473C0BB
:100C400008958533910509F459C08933910501F15F
:100C50000895833E9105A9F138F4803E9105F9F09D
:100C6000823E910549F10895863E9105A9F1873E9E
:100C70009105C9F1843E910519F52091520221FF99
:100C80001FC08091510284FD14C087EE90E008954A
:100C9000209151022370A1F080EE90E00895209100
:100CA000510220FD47C03091520230FF09C024FF9D
:100CB00044C090E080E004C02091510222FDF7CFB3
:100CC00008952091510222FD3BC03091520230FD27
:100CD000E3CF24FFF5CFEDCF2091510223FFF0CFDA
:100CE00024FDE7CFD2CF2091510223FD2CC03091BB
:100CF000520231FFEECF84EE90E008952091510230
:100D000025FFDECF89E290E008952091510225FF72
:100D1000D7CF85E390E008952091510226FFD0CFF0
:100D20008AE290E008952091510226FFC9CF81E325
:100D300090E0089589E390E0089583EE90E00895AF
:100D400082EE90E0089586EE90E008959091510231
:100D500092FF06C0282F28712830F9F4877F84601D
:100D600093FF06C0282F28712831F1F4877E846113
:100D70002091520220FF06C0382F38713830D9F444
:100D8000877F816021FF06C0282F28712831D1F488
:100D9000877E816194FD877E0895282F24712430F9
:100DA000F9F68B7F8860DCCF282F2471243101F77E
:100DB0008B7E8861DDCF382F3171313019F78E7F0E
:100DC0008860E0CF282F2171213121F78E7E886144
:100DD000E1CF08950E943819811102C00E94DD19E7
:100DE0000E944319809345020E944B19909352022E
:100DF000809351020E94E9060E944719682F70E013
:100E000090E080E00E947F16609130027091310284
:100E100080913202909133020C94B91608950C948B
:100E20000E0708950C941107E82FF0E0E95AFD4FE2
:100E300080810895089580EA8A95F1F7089500C0A9
:100E400008950C941B07F894E82FE295EF70F0E0FA
:100E500031A1282F2F7081E090E001C0880F2A95E2
:100E6000EAF7982F9095932391A392A1892B82A3BF
:100E70007894089581E30E94230786E30E94230764
:100E800084E30E94230785E30E94230787EF0E94E3
:100E9000230786EF0E94230785EF0E94230784EF34
:100EA0000E942307A3E5B2E01C92E7E5F2E010827E
:100EB00011961C921197118212961C92129712820F
:100EC00013961C92138284E00E94DF070C947A042C
:100ED000CF92DF92EF92FF920F931F93CF93DF9306
:100EE000C9E4D1E003E512E0D12CEE24E394F12C27
:100EF0008991F894E82FE295EF70F0E021A18F70CE
:100F0000A70102C0440F551F8A95E2F7CA01922F2C
:100F1000982B91A392A18095892382A378940E9413
:100F20001F07E5E4F1E030E020E0C12C4191A42F5F
:100F3000A295AF70B0E090968C9190E04F7002C097
:100F4000959587954A95E2F780FD35C08E2D022E46
:100F500001C0880F0A94EAF7C82A2F5F3F4F243058
:100F6000310521F7FE01319780810E9423070E94FD
:100F70002107F8018081C81601F1C08281E0D82ADA
:100F80000F5F1F4FF1E0CD34DF0709F0B1CF2D2DFA
:100F900044E067E572E083E592E00E94E0070E948A
:100FA00080048D2DDF91CF911F910F91FF90EF90D5
:100FB000DF90CF90089580E0CFCF80E0E0CF08951C
:100FC000FF920F931F93CF93DF93F82E092F162FC5
:100FD000D72FC42F222349F081E080939E010E94E5
:100FE000B91A90939D0180939C0180919E01882362
:100FF000A1F080919C0190919D010E94D11A0597CA
:1010000060F0EF2DF02FA12FBD2FCE0FDF2FD11DC0
:10101000EC17FD0741F410929E01DF91CF911F91D3
:101020000F91FF90089581918D93F2CF0C94190444
:10103000AF92BF92CF92DF92EF92FF920F931F93E6
:10104000CF93DF93AFE5B1E02DE531E083EAA82E41
:1010500081E0B82E61E671E041E050E00D91802F13
:1010600082958F7090E0FC01C1A10F707A01002E73
:1010700001C0EE0C0A94EAF7FE2DF095CF23FC0197
:10108000C1A3C2A1CE29C2A3E90119919E01E12FFA
:10109000E295EF70F0E0F1A01F706A01012E01C02F
:1010A000CC0C0A94EAF7EC2CE094EF20E1A2F2A039
:1010B000FC28F2A2EC0188A190E002C095958795EA
:1010C0000A95E2F78170E0A1F0E002C0F595E7959E
:1010D0001A95E2F790E0E0FD92E0892BF50181930B
:1010E0005F016A177B0709F0B9CFDF91CF911F919C
:1010F0000F91FF90EF90DF90CF90BF90AF90089549
:101100006F927F928F929F92AF92BF92CF92DF9217
:10111000EF92FF920F931F93CF93DF9303EA11E0B7
:101120008FE5C82E81E0D82E9DE5E92E91E0F92EBD
:1011300021EA822E21E0922ECFE9D1E0712C612CA0
:1011400034E0A32EB12CD801EC91EE0FEE0FED930D
:101150008D01D6012D916D01A22FA295AF70B0E047
:1011600090968C9190E02F7002C0959587952A9566
:10117000E2F781709927D7014D917D01A42FA295A7
:10118000AF70B0E090962C9130E04F7002C0359572
:1011900027954A95E2F7A9014170552720FF02C023
:1011A00042E050E0842BE82BD8011197EC93EF70CC
:1011B000F0E0E35BFE4F8081F4019081890F808332
:1011C00020E0843044F088818F5F888360E0872D41
:1011D0000E94160821E0D4018C918D3F44F488814F
:1011E0008150888361E0872D0E94160821E0F40178
:1011F0008081082E000C990BB5010E94D821D401E2
:101200008D934D01622A2196B1E07B1210C0862D8C
:10121000DF91CF911F910F91FF90EF90DF90CF90D2
:10122000BF90AF909F908F907F906F90089577249C
:10123000739489CFCF92DF92EF92FF920F931F9317
:10124000CF93DF936C017B0164E670E088E70E9436
:10125000130EEC0197FD12C010E000E0F601E00F64
:10126000F11F849164E670E00E946F0EEC01892BFF
:1012700029F40F5F1F4F0E151F0581F70E94F20E14
:10128000CE01DF91CF911F910F91FF90EF90DF90F2
:10129000CF900895EBE5F2E080E092E0DF019C0161
:1012A0001D9221503040E1F7F0936004E0935F0419
:1012B0008FEF9FEF9093D1018093D00108950E940A
:1012C0000D048093CC0180FD0FC080E88093CB019A
:1012D0000E940D0E6DE070E083E491E00E941A0917
:1012E000892B21F080E0089580E2F0CF8091CC013D
:1012F00063E070E081FD26C080E491E00E941A095D
:10130000892B81F76DE070E080E391E00E941A097B
:10131000892B41F70E94C51A605A75418F4F9F4F24
:1013200060935B0470935C0480935D0490935E040F
:101330000E944A0981E08093CF018093CE011092F0
:10134000CD0108958DE391E0D9CF2091CB0136E016
:10135000839FC0011124629F800D911D112481156E
:1013600022E0920714F090E080E0855A9D4F909320
:10137000600480935F04089520915F0430916004BD
:10138000255532404091CB01642F70E0C9010E9485
:10139000C421481B463010F4240F311D211582E072
:1013A000380710F030E020E0255A3D4F30936004BC
:1013B00020935F0408951F93CF93DF93162F8A30F5
:1013C00031F481E0DF91CF911F910C94550A8D305B
:1013D00011F480E0F7CFC0915F04D091600496E0F3
:1013E000FE01A5EAB1E001900D929A95E1F7803EE9
:1013F000C8F086E0FE0111928A95E9F711111EC02E
:10140000C0915F04D091600446E050E0BE0185EADF
:1014100091E00E94FB21892BF9F4DF91CF911F917C
:101420000C94BC09F6E08F9FB0011124605B7E4FE5
:1014300046E050E0CE010E94F221E0CFE0915F044F
:10144000F09160049F012A5F3F4F2E173F07C1F2C2
:10145000808180958193F9CFCB55D240CE0125E094
:10146000969587952A95E1F721E030E0A90102C021
:10147000440F551F8A95E2F7CA014091D00150915F
:10148000D101842B952B259645E0D695C7954A9595
:10149000E1F702C0220F331FCA95E2F7822B932B8C
:1014A0009093D1018093D001B8CFCF93382FE091A2
:1014B0005F04F0916004EB55F2402091CB01622F64
:1014C00070E0CF010E94C421281B822F332369F0D2
:1014D00066E00E94B821C82FC15010F4CF91089542
:1014E00060E080E20E94DB09F7CF9F01280F311DE9
:1014F0002115324018F080E0F0E0E0E08E0F9F2FE1
:10150000911D855A9D4F9093600480935F04E6CFB0
:101510001F93CF93DF93EC01162FFE01849181116D
:1015200004C0DF91CF911F910895612F0E94DB09C4
:101530002196F3CF0E94880A81E00C94550A80918D
:10154000CF01811103C08091CE0108950E94C51A78
:10155000605A75418F4F9F4F60935B0470935C049A
:1015600080935D0490935E048091CE018111EBCF56
:1015700062E070E08EE291E00E941A09892B19F76F
:1015800081E08093CE01DFCF2F923F925F926F92E6
:101590007F928F929F92AF92BF92CF92DF92EF9203
:1015A000FF920F931F93CF93DF938091CF018823F6
:1015B00069F02091D0013091D1012115310531F030
:1015C0008091CD0161E070E0882399F0DF91CF91A7
:1015D0001F910F91FF90EF90DF90CF90BF90AF9051
:1015E0009F908F907F906F905F903F902F90089585
:1015F0008F5F082F10E01B01082E02C0220C331C45
:101600000A94E2F7A90142215321452B89F39091D5
:10161000CC0190FD44C08295880F807680930201B2
:101620009801369527953695279520930501815E7B
:10163000809303011092060124E630E047E050E079
:1016400060E071E088E70E949E0E892B09F0BECF12
:10165000A80125E0440F551F2A95E1F78091CC01A0
:1016600080FD2BC0455A5D4F04E610E020E230E0DB
:1016700060E488E70E94C50E892B09F0A7CF0E947D
:101680009F0AE101C095D0958091D0019091D10140
:10169000C823D923D093D101C093D00197CF880F0D
:1016A000880F880F8093020110920501895F809353
:1016B000030183E080930601BFCFEBEAF1E080E213
:1016C000DF011D928A95E9F7A5E6B1E001E611E098
:1016D00089E6C82E81E0D82E97E0592E772473949E
:1016E0008D91E80129918E01240F352F311D255A46
:1016F0003D4FE82FF0E0E555FE4F90E080E0652C8F
:10170000681A872C082E01C0880C0A94EAF7790120
:10171000A12CE701B9907E01B820662D6A19677087
:10172000962E062E000C770BDB2D01C0DD0F9A9450
:10173000EAF77195619571096770772701C0B694D2
:101740006A95EAF7BD2A6081962E9B289082A39421
:1017500068E0A612DECF019631968830910579F6C1
:10176000CA16DB0609F0BCCF04E610E020E230E048
:101770004BEA51E07DCF8091CE019091CF01911144
:1017800003C091E089270895882369F062E070E042
:101790008CE291E00E941A09892B19F08091CE0108
:1017A00008951092CE018091CE01EBCF0F931F933D
:1017B0008091CF01882319F160E080E00E94A509A3
:1017C0000E940F040E94C40A8091CE018823B9F0C0
:1017D0000E94C51A00915B0410915C0420915D0485
:1017E00030915E04601B710B820B930B6F3F7F4F38
:1017F0008F4F9F4720F41F910F910C94BB0B1F91AB
:101800000F9108950F931F93CF93DF93C42FD22F7F
:10181000FC0182818823C9F04093D4010E94B91A47
:101820009093D3018093D20180E28C0F883008F02E
:1018300050C0C77081E001C0880FCA95EAF7DF91F8
:10184000CF911F910F910C9402111091D401141398
:1018500035C08091D2019091D3010E94D11A883C69
:10186000910560F5C0E2CD0F1D17B9F080E2810F40
:10187000883040F4177081E001C0880F1A95EAF7AC
:101880000E940911C83048F481E09D2F977001C073
:10189000880F9A95EAF70E940211802F0E94FA1091
:1018A000C830B8F4D77081E001C0880FDA95EAF744
:1018B000DF91CF911F910F910C94091180E28C0F51
:1018C000883038F4C77081E001C0880FCA95EAF704
:1018D000EFCFDF91CF911F910F9108950F939C014E
:1018E000CB01243F4CE5340759F1A8F4293DFCE530
:1018F0003F0701F12A3D4CE53407D1F1283D3C4535
:1019000091F406E221EE41EE68ED7CE50E94020CC6
:1019100080E00F910895263FFCE53F07E9F0B0F025
:10192000273F3C45F9F0FC018281882339F1109270
:10193000D401EFCF07E225EE45EE69ED7CE5E6CF79
:1019400006E221EE40EE64EF7CE5E0CF07E225EE13
:1019500044EE65EF7CE5DACF06E221EE42EE66EF7B
:101960007CE5D4CF07E225EE46EE67EF7CE5CECFEF
:1019700008E221E045EE6AED7CE5C8CF81E0C9CF01
:10198000CF93DF93EC01FB018281882309F419C115
:10199000C230FCE5DF07C0F1C6319CE5D90730F065
:1019A0009E012B5F3C452930310570F50E944B1993
:1019B0009093520280935102C031ECE5DE0709F4A6
:1019C000CFC008F05BC0C8308CE5D80709F4B6C0BA
:1019D00088F5C430ECE5DE0709F4A8C0C0F4C230D5
:1019E0008CE5D80709F49CC0809151028260C33015
:1019F000DC4509F498C080915102909152020E94F6
:101A000059190E945F1380E0DF91CF910895809172
:101A100051028061C630ECE5DE0709F484C0809194
:101A200051028860C730DC4508F47DC080915102C6
:101A3000806279C0CC308CE5D80709F489C070F495
:101A4000809151028C60CA30ECE5DE0709F46BC06E
:101A500008F478C0809151028E7F65C0CE308CE54D
:101A6000D80709F479C0809151028B7FCF30DC45D3
:101A700008F459C0809151028F7E55C0CC3FECE5EF
:101A8000DE0709F457C030F5C3318CE5D80709F4F7
:101A90006FC078F4C131ECE5DE0709F465C0C231EE
:101AA000DC4509F0A8CF0E945F13809151028F7727
:101AB0003AC0C5318CE5D80709F462C008F476C095
:101AC000809152028160CB3FDC4509F094CF809336
:101AD000520291CFC115FDE5DF0709F44DC088F42E
:101AE000809152028D7FCE3F9CE5D90781F3809192
:101AF00052028E7FCF3FDC4550F3809152028360CB
:101B0000E6CFC230FDE5DF0709F459C008F444C050
:101B100080E0C330DD4509F06ECF0E94DF196BCF46
:101B20008091510281608093510265CF8091510272
:101B30008460F9CF809152028260C9CF80915102B6
:101B40008064F1CF0E945F13809151028068EBCFD7
:101B5000809151028D7FE7CF80915102877FE3CF43
:101B6000809151028F7DDFCF809151028F7BDBCF3F
:101B700080915102837FD7CF809152028C7FA7CF73
:101B80008091510282FB992790F921E0922790FBE6
:101B900082F990FB83F9C7CF80915202982F9095DC
:101BA00091708E7F892B90FB81F991CF0E945F13FA
:101BB00090915102892F97FB87F98058B4CF81E02B
:101BC000ACCF81E021CFCF93DF93EB0186319C45F1
:101BD00011F50E9486189A81992399F08A7A91E0EA
:101BE00009F490E09093D501811109C089E20E9427
:101BF00040180E94C91880E0DF91CF91089585E3D5
:101C0000F6CF8091D501811104C089E20E94471866
:101C1000F0CF85E3FBCF81E0EFCF1092B90088E4ED
:101C20008093B8000895EF92FF920F931F93CF9384
:101C3000DF93182FEB011092BC0084EA8093BC0064
:101C40000E94B91A7C018091BC0087FF27C0809157
:101C5000B900887F883029F08091B900887F803171
:101C6000D9F51093BB0084E88093BC000E94B91A98
:101C70008C018091BC0087FF24C02091B900287F8F
:101C800090E080E02831B1F081E090E0203411F460
:101C900090E080E09195819591090CC0CF3FDC07E1
:101CA00091F20E94B91A8E199F098C179D0758F25C
:101CB0008EEF9FEFDF91CF911F910F91FF90EF90EB
:101CC0000895CF3FDC07A9F20E94B91A801B910B3F
:101CD0008C179D0770F2ECCF8FEF9FEFEBCF0F9338
:101CE0001F93CF93DF93EB018093BB0084E8809335
:101CF000BC000E94B91A8C018091BC0087FF11C002
:101D00002091B900287F81E090E0283211F490E022
:101D100080E0919581959109DF91CF911F910F916D
:101D20000895CF3FDC0741F30E94B91A801B910B45
:101D30008C179D0708F38EEF9FEFEECFCF92DF92C7
:101D4000EF92FF920F931F93CF93DF936B018A0162
:101D50007901B9010E94130EE6010C0D1D1DC0177B
:101D6000D10761F424E92093BC00DF91CF911F914A
:101D70000F91FF90EF90DF90CF90089597FDF2CFF5
:101D8000B70189910E946F0EEACFCF92DF92EF9256
:101D9000FF920F931F93CF93DF93C62F6A017901B0
:101DA000B8010E94130E97FD0CC0B8018C2F0E9441
:101DB0006F0EE601EC0CFD1CCE15DF0511F097FF50
:101DC0000CC024E92093BC00DF91CF911F910F91AB
:101DD000FF90EF90DF90CF900895B80189910E9415
:101DE0006F0EEACF84E98093BC0008959093DB01E5
:101DF0008093DA010895E091DA01F091DB013097E8
:101E000021F00190F081E02D099480E00895E091A7
:101E1000DA01F091DB01309721F00280F381E02DAF
:101E2000099408952091D8013091D90128173907D4
:101E300071F09093D9018093D801E091DA01F0918B
:101E4000DB01309721F00680F781E02D0994089599
:101E50002091D6013091D7012817390771F090935E
:101E6000D7018093D601E091DA01F091DB01309740
:101E700021F00084F185E02D099408950E94C51A8F
:101E80006093E9017093EA018093EB019093EC0178
:101E90006093E5017093E6018093E7019093E80178
:101EA00008950E94C51A6093E9017093EA01809336
:101EB000EB019093EC016093E1017093E201809358
:101EC000E3019093E401089585B7806885BF85B7E5
:101ED000806885BF0895089508950C946B0F089548
:101EE0000C946F0F0E94640F86E399E10E94281BF7
:101EF0000E946C0F0C946D0F81E008950C947C0F80
:101F0000089508950E94800F0C94810F0E94B01ACA
:101F10000E943A0780E00E945F090E9418080C9412
:101F2000700F9F92AF92BF92CF92DF92EF92FF928B
:101F30000F931F93CF93DF93CDB7DEB72A970FB6DA
:101F4000F894DEBF0FBECDBF0E946807C82E811176
:101F50000E943E0F8DEDA82E81E0B82E10E000E02B
:101F6000902E802F0E941407E82EF501F1905F015A
:101F7000F81609F45AC08091450281FD0E941A07A3
:101F80008F2D8E25D12CFF24F394982F9F2109F4B7
:101F900047C00E947E0F882399F0DE829F82EF2047
:101FA00081E009F480E088870E94B91A8160782F67
:101FB0009A8789874E815F8168858A850E943E1055
:101FC000F801E352FE4F8081F826F0820E948008DB
:101FD000182F81110E94510F0E94D60BC11001C011
:101FE00011110E949F0A0E94FB0E9091DC0189173B
:101FF00099F10E94FB0E8093DC012A960FB6F894AB
:10200000DEBF0FBECDBFDF91CF911F910F91FF902B
:10201000EF90DF90CF90BF90AF909F900C9407050A
:10202000D394FF0CF4E0DF12B0CF0F5F1F4F0430EA
:10203000110509F095CF8FEF89838A831B820E9457
:10204000B91A8160782F9D838C8349815A816B8175
:102050008D810E943E10BACF2A960FB6F894DEBF4B
:102060000FBECDBFDF91CF911F910F91FF90EF90E9
:10207000DF90CF90BF90AF909F900895DF92EF9246
:10208000FF920F931F93CF93DF93CDB7DEB72B97BC
:102090000FB6F894DEBF0FBECDBF7A878B87F42EC4
:1020A000052F162FE72ED82E61110E94A6181E822A
:1020B0001D827E2DEC82DD824F2D502F612F8D2DC4
:1020C0009E812B960FB6F894DEBF0FBECDBFDF9179
:1020D000CF911F910F91FF90EF90DF900C94D51549
:1020E000FC01808191810C941218CF93C82F882312
:1020F00009F43FC08CEF8C0F813AA0F46C2F8091D3
:102100000701909108010E94F619882329F08C2F6D
:102110000E9447180E94C9188C2F0E944018CF9126
:102120000C94C91880E28C0F883048F4C77081E0A5
:1021300001C0880FCA95EAF70E948918F0CFEBE535
:10214000EC0FE33040F4F0E0E956FE4F808190E080
:10215000CF910C94120FC85AC73158F4EC2FF0E00D
:10216000EE0FFF1FE759FE4F80819181CF910C94B4
:10217000280FCF910895882329F19CEF980F913A69
:1021800020F40E9447180C94C91890E2980F9830D8
:1021900050F4877091E001C0990F8A95EAF7892F72
:1021A0000E948F18F0CF9BE5980F933020F490E0B9
:1021B00080E00C94120F885A873120F490E080E080
:1021C0000C94280F08951F93CF93DF93182FEB01E2
:1021D0000E947510209731F4812FDF91CF911F91CC
:1021E0000C94BB108FE99FE00197F1F700C000004D
:1021F0002197F0CF70E060E0893311F460E570E082
:102200000C94E310882321F00E9489180C94C918BB
:102210000895882321F00E948F180C94C9180895FE
:10222000BF92CF92DF92EF92FF920F931F93CF93C3
:10223000DF936C01D62FC72FFC0112810581029517
:102240000F700E945E18E82E8823A1F0E12E112362
:1022500089F08C2F807F803429F080E28D0FE12C73
:10226000883040F082E00E941A190E945E1891E0C6
:10227000E82EE926BC2EB2949FE0B922FBE0FB15C4
:1022800098F1EB2DF0E0E45BFD4D0C94EC210C2F6C
:102290000F70C07F11F00295007F1123A9F0002379
:1022A00059F080E28D0F883010F0D11109C0802FD5
:1022B0000E9489180E94C9188D2F0E94751014C0A1
:1022C000802F0E949918F6CF8D2F0E94BB100023FB
:1022D00059F080E28D0F883010F0D1112CC0802F82
:1022E0000E948F180E94C9182B2D2850330B2430C0
:1022F000310520F40E94FB0E0E940705EE2009F430
:1023000083C10E945A1880FD7FC1F60112820E948B
:1023100054180E94E116C6010E9425130E94541809
:10232000DF91CF911F910F91FF90EF90DF90CF90B1
:10233000BF900C940217802F0E949F18D3CF2C2F90
:102340002F70F22EC07FC03219F0F29480EFF82285
:10235000DD2369F0D13049F1112391F1002351F1CE
:10236000F601858180FFA8CF8F70858323C011235C
:1023700081F0011106C00E94AC188F290E94021141
:10238000B3CF0130C1F70E94AC188F290E94B21858
:10239000ABCF011106C00E94BF188F2D0E940911FA
:1023A000A3CF013009F4A0CFF6CF112329F00630D6
:1023B00008F09ACF8F2DE2CF053008F095CFEDCF02
:1023C000002359F3D93349F4FFEF27EE33E0F150FE
:1023D00020403040E1F700C000008D2F0E94BB106C
:1023E00083CF8C2F86958695837069F0813009F0B4
:1023F0007BCF8D2F9C2F9370111102C090E080E055
:102400000E94280F71CF8D2F9C2F9370111102C045
:1024100090E080E00E94120F67CF8C2F837009F04C
:1024200041C0111161CF4D2F429546954770440F21
:10243000440F0D2F0F7010E030E020E0042E04C098
:10244000000F111F221F331F0A94D2F760E070E0C3
:10245000CB01D4FF0FC06FE070E080E090E004C0DB
:10246000660F771F881F991F4A95D2F76095709560
:1024700080959095C695C695C370602B712B822B65
:10248000932BC23049F058F4C13019F00E949316D2
:102490002BCF0E94811628CF0E94A51625CF0E941F
:1024A0007F1622CF8695112311F08C2F81708823FF
:1024B00009F41ACF4D2F429546954770440F440FAB
:1024C0000D2F0F7010E030E020E0042E04C0000F4C
:1024D000111F221F331F0A94D2F760E070E0CB0176
:1024E000D4FF0FC06FE070E080E090E004C0660FA2
:1024F000771F881F991F4A95D2F760957095809530
:102500009095C695C695C370602B712B822B932B2B
:10251000C23049F058F4C13019F00E945817E4CE87
:102520000E944617E1CE0E946A17DECE0E94BB16BB
:10253000DBCECF70112329F08C2F0E94E1168D2F56
:102540001DCF8D2F0E9409118C2F0E940217CCCE17
:10255000D23F89F160F4D03FC9F0D13F29F1112376
:1025600009F442C00111A8CE8C2F8F7121C0D33F36
:1025700039F1D43FA1F7112369F1CF718C2F0E945B
:10258000E11663E08C2F0E94FF18AECE112341F0BC
:10259000053008F0A9CE8C2F8F710E942517A4CE8C
:1025A000063008F0A1CEF7CF8C2F8F71112369F27E
:1025B0000E94E11699CE8C2F8F711123C9F3C5CFDC
:1025C000112329F08C2F8F710E94CC168DCE0E9482
:1025D000C7168ACE81E00E941A19023008F484CE10
:1025E00082E00E941A1980CE002359F0D93309F0F5
:1025F000F4CE8FEF97EEE3E081509040E040E1F7BA
:10260000EACE8C2F8F71A1CFDF91CF911F910F91C7
:10261000FF90EF90DF90CF90BF9008950F931F939E
:10262000CF93DF93EC01688179818A810E941C1825
:102630008C010E947C170E947E16B801CE01DF91AA
:10264000CF911F910F910C941011CF93DF93EC0158
:102650008B819C81892B29F08881998189238F3FE7
:1026600059F4DF91CF910895CE010E940E13CE014F
:10267000DF91CF910C946F04CE010E9492048111DE
:10268000F3CF0E945E18882361F38A81882349F37F
:1026900082E0DF91CF910C941A1990E080E00E94C3
:1026A000120F90E080E00E94280F0E94A6180E945E
:1026B000A9180C94C9180E944E180C944D130E942E
:1026C00096180C945B13E92FE295EF70E250EE3010
:1026D00070F4F0E0E85AFD4D0C94EC21803F19F0C5
:1026E00020F4883E20F481E00895843FE1F380E007
:1026F0000895883EC0F3813FD1F7F5CF93FB88273B
:1027000080F908950E9412180C946313CF93DF93FD
:1027100000D000D00F92CDB7DEB70F900F900F9082
:102720000F900F90DF91CF910895CF93DF9300D05A
:1027300000D000D0CDB7DEB726960FB6F894DEBF36
:102740000FBECDBFDF91CF9108951F93CF93DF933D
:10275000C091EE0116E08091EF018C1304C0DF916F
:10276000CF911F910895D0E01C9FF0011D9FF00DA7
:102770001124E051FE4F4081518162817381848137
:1027800095810E9495132196C770E5CF4091200254
:1027900050912102609122027091230280912402C3
:1027A000909125020C9495131F93CF93DF93809102
:1027B0002502807FA9F480912202882389F08091EC
:1027C000EE01C091EF016091200270912102A09171
:1027D0002302B0912402D62FD72316E0C81304C0D9
:1027E000DF91CF911F91089590E0109711F0DF3F96
:1027F00019F401968770F2CF189F9001199F300D40
:102800001124F901E051FE4F41814713F2CF40817D
:102810004613EFCF42814111ECCF438154814A1BD3
:102820005B0B483C510528F7809125028F70806131
:1028300080932502F901EB50FE4F80818F708061FB
:10284000808380E292E00E942513DF91CF911F9157
:102850000C94A513AF92BF92CF92DF92EF92FF92AA
:102860000F931F93CF93DF93CDB7DEB761970FB66A
:10287000F894DEBF0FBECDBF8C0185E0F801DE010C
:102880001D9601900D928A95E1F7F80140815181E2
:10289000E28080E2C82E82E0D82E609123027091FF
:1028A00024026115710509F461C190912002209103
:1028B0002102892F82238F3F09F458C1A380B4805D
:1028C000F0902202F501E61BF70BFF2009F4FCC093
:1028D00080912502382F307FE83CF10508F0B2C026
:1028E000311179C0FE2C251323C0941321C0E110AF
:1028F0001FC08F708061809325020E94C613C6019D
:102900000E94251380912502F80185838F2D619601
:102910000FB6F894DEBF0FBECDBFDF91CF911F91F0
:102920000F91FF90EF90DF90CF90BF90AF90089500
:10293000AB2829F0842F85238F3F09F033C180E035
:10294000F82FF170DF2E80FF3CC08091EE012091C6
:10295000EF0136E0821315C04D875E878D859E8519
:102960000E941218292F22952F702230F0F0243067
:1029700018F59F70F1F0F8019581907FD1F4D12C7A
:102980001EC090E0389FF001399FF00D1124E051F6
:10299000FE4F6181651306C06081641303C06281CC
:1029A0006E110FC001968770D5CF9F7011F08823EC
:1029B00031F3805E883018F3C8010E942513FD2C86
:1029C000A5CFEE2009F4A2CF8091250281608093EB
:1029D0002502F12C9BCF251306C0941304C0F801E7
:1029E000EE2009F48DC04D875E878D859E850E94FF
:1029F0008213882319F1EE2009F18091250280329B
:102A000070F0209120023091210238872F8319869F
:102A1000BB86AA868C87CE0107960E94251386E086
:102A2000F801A0E2B2E001900D928A95E1F70E94D0
:102A3000D4130E94C613FF24F39468CFC8010E94E8
:102A40002513F9CF311113C07A2DB98AA88A6E2DBA
:102A500089890E94861380E292E00E94251386E015
:102A6000F60111928A95E9F70E94C613B2CF251399
:102A70000FC094130DC0E1100BC0F8018583C8018D
:102A80000E94251386E0F60111928A95E9F73ECF60
:102A90004D875E878D859E850E948213882371F203
:102AA000EE2061F280912502803208F4B8CF2091A7
:102AB0002002309121023A8329831B82BD82AC829D
:102AC0008E83CE010196A9CFE83CF10508F041C004
:102AD000FE2CEE2009F4B2CF25132AC0941328C08F
:102AE0008091250280FD1BC0982F907FC1F0F801D6
:102AF0008583903F31F0982F907F905F8F70892B66
:102B00008583C8010E94251386E0F801A0E2B2E0A7
:102B100001900D928A95E1F70E94C613F7CE86E0E8
:102B2000F801A0E2B2E001900D928A95E1F7EECEB5
:102B30004D875E878D859E850E94821381116FCFA0
:102B400080912502816080932502C8010E9425138F
:102B5000DDCE7A2DB98AA88A6E2D89890E948613C6
:102B600086E0F60111928A95E9F7D6CFEE2009F4B6
:102B700065CF4D875E878D859E850E948213F82ED6
:102B8000882309F45BCF86E0F801A0E2B2E001906F
:102B90000D928A95E1F780E292E00E9470100E9407
:102BA000D413BACF81E08E25CBCE1F93CF93DF9382
:102BB000CDB7DEB72C970FB6F894DEBF0FBECDBFF2
:102BC0004F83588769877A878B879C87CE010796C2
:102BD0000E942A14882369F08A859B85892B39F005
:102BE0004F815885842F85238F3F09F071C016E0EF
:102BF0005FC086E0FE013796DE01119601900D92CE
:102C00008A95E1F78A859B85892B89F38F81988541
:102C100089238F3F61F32091EF0130E0C9010196D4
:102C2000877099274091EE014817190671F40E94A8
:102C30005F131092EF011092EE0186E0E0E2F2E005
:102C4000DF011D928A95E9F7D2CF96E0929FD001DD
:102C5000939FB00D1124A051BE4FFE0131960190FB
:102C60000D929A95E1F78093EF010E94A513BFCFD3
:102C7000819FC001112480519E4F0E942A148823F5
:102C8000E9F0E091EE011E9FF0011124E051FE4FAA
:102C90004081518162817381848195810E94951365
:102CA0008091EE0190E00196877099278093EE0164
:102CB0008091EE019091EF018913DACF2C960FB637
:102CC000F894DEBF0FBECDBFDF91CF911F91089565
:102CD00069857A858B859C850E94951388CF089598
:102CE0000C946F160E947016609334027093350234
:102CF00080933602909337020C944D1308950C94F0
:102D000072160F931F930091340210913502209197
:102D1000360230913702602B712B822B932B1F913F
:102D20000F910C9472160F931F930091340210911F
:102D300035022091360230913702602371238223BD
:102D400093231F910F910C9472160F931F93009170
:102D500034021091350220913602309137026027FB
:102D60007127822793271F910F910C9472160C9450
:102D70006F160C94B7160E94B916609330027093C8
:102D8000310280933202909333020C944D1360E031
:102D900070E0CB010C94BB160F931F9341E050E001
:102DA00060E070E08A019B0104C0000F111F221F28
:102DB000331F8A95D2F7C901B8011F910F910C9466
:102DC000BB160F931F9341E050E060E070E004C039
:102DD000440F551F661F771F8A95D2F780913002E6
:102DE00090913102A0913202B09133028A019B018D
:102DF000082B192B2A2B3B2BC901B8011F910F91CE
:102E00000C94BB160F931F9341E050E060E070E01C
:102E100004C0440F551F661F771F8A95D2F7CB0158
:102E2000BA0160957095809590950091300210914F
:102E300031022091320230913302602371238223C8
:102E400093231F910F910C94BB160F931F9341E096
:102E500050E060E070E004C0440F551F661F771F0C
:102E60008A95D2F78091300290913102A09132027E
:102E7000B09133028A019B01082719272A273B2793
:102E8000C901B8011F910F910C94BB160F931F93AA
:102E900000913002109131022091320230913302C0
:102EA000602B712B822B932B1F910F910C94BB16CF
:102EB0000F931F9300913002109131022091320242
:102EC0003091330260237123822393231F910F914A
:102ED0000C94BB160F931F93009130021091310296
:102EE0002091320230913302602771278227932785
:102EF0001F910F910C94BB160895990F990F890F8C
:102F0000982F977041E001C0440F9A95EAF7869593
:102F10008695869595E0899FF0011124EA5DFD4F25
:102F200030E020E070E05191DF011197CB01022EDB
:102F300002C0969587950A94E2F78170819585275E
:102F4000842385278C932F5F3F4F2530310559F718
:102F50000895990F990F890F982F977086958695E8
:102F6000869525E0829FF0011124EA5DFD4F50E037
:102F700040E080E0219130E0092E02C0369527958F
:102F80000A94E2F721703327042E01C0220F0A941D
:102F9000EAF7822B4F5F5F4F4530510559F708958F
:102FA000BF92CF92DF92EF92FF920F931F93CF9336
:102FB000DF938C01C0903002D0903102E090320259
:102FC000F09033028091340290913502A091360244
:102FD000B0913702C82AD92AEA2AFB2ACFE1D0E0E9
:102FE000BC2ED701C6010C2E04C0B695A7959795A7
:102FF00087950A94D2F780FD0EC0219788F7B12CEF
:103000008B2DDF91CF911F910F91FF90EF90DF906B
:10301000CF90BF900895B8018C2F0E94230501978F
:1030200061F3EECFCF93DF93EC010E94D017BE0186
:10303000DF91CF910C9423051F93CF93DF93EB0186
:103040009091ED01992331F0CB01DF91CF911F9148
:103050000C941218882379F0CB010E94D017182FF6
:10306000682FCE010E947D17BE01812FDF91CF9185
:103070001F910C942305CB010E94A917182FF4CFA0
:10308000682F80910701909108010C942C1A682FE9
:1030900080910701909108010C942E1A80910701EC
:1030A000909108010C94301A80913802859585958D
:1030B000859508958091380287700895909138021F
:1030C000977081E009F480E008959091520292FB9C
:1030D000222720F9281751F080FB92F99093520291
:1030E00080915102909152020C9459190895809147
:1030F000520282FB882780F991E089270C94651899
:1031000081E00C94651880E00C946518809144026D
:10311000089590914402892B8093440208958095EC
:10312000909144029823909344020895109244028F
:10313000089590914302892B8093430208958095CE
:103140009091430298239093430208951092430272
:1031500008951092420208958091390208950895C9
:103160000C94AF189091520292FD08C090913902D0
:10317000981721F0809339020C94B018089580912B
:103180003902882329F01092390280E00C94B0189B
:103190000895E0910701F091080180914402808335
:1031A000E0910701F0910801808190914302892B01
:1031B0008083E0910701F0910801808190914202A3
:1031C000892B808390913902992381F0E091070146
:1031D000F09108018081892B808380910701909173
:1031E00008010E94E41981110E94BF188091070113
:1031F000909108010C94070F08950C94FC1890917D
:10320000520292FD10C098E0899F90011124622B18
:10321000609338020E94E116809138028595859569
:1032200085950C94FD180C94E1161092380280E0FC
:103230000C94FD1890913802809589238093380270
:10324000282F277039F4282F082E000C330B9217E3
:10325000130621F49091520292FF07C0859585953F
:1032600085950E9402170C941519089580E0089521
:1032700090E080E00E94102221E08A3E9E4F09F0FB
:1032800020E0822F089582E090E00C94082283E0F1
:1032900090E00C940822CF9384E090E00E940822F2
:1032A000C82F82E290E00E940822982F8C2FCF91A5
:1032B0000895CF93C92F682F84E090E00E941622D2
:1032C0006C2F82E290E0CF910C941622AB01BC01EE
:1032D0008FE090E00C942822AB01BC0183E190E0E8
:1032E0000C94282260E070E0CB010C946C1960E033
:1032F00070E0CB010E9466190C9472196AEE7EEFA1
:1033000090E080E00E94342260E082E090E00E9441
:10331000162260E083E090E00E94162210923402B0
:1033200010923502109236021092370260E084E06B
:1033300090E00E94162260E082E290E00E94162255
:1033400060E085E090E00E94162260E086E090E078
:103350000E9416226FEF87E090E00E94162240E064
:1033600050E0BA0188E090E00E94282260E08DE001
:1033700090E00E94162240E050E0BA0188E190E01F
:103380000E94282260E087E190E00E94162240E03F
:1033900050E0BA018CE190E00E94282270E060E0E9
:1033A00080E290E00E94342240E050E0BA0188E1DF
:1033B00090E00E9428220C9477190C947E19682FB3
:1033C0008EE090E00C9416229C012E5F3F4FAC01E2
:1033D000485F5F4F80E02417350709F40895F9012D
:1033E00091919F019923B9F38F5FF5CF662349F03F
:1033F000FC01329608962191261729F0E817F90763
:10340000D1F780E0089581E008959C01FC01329697
:103410009FEF80E04191461751F09F3F19F4411111
:1034200001C0982F8F5F8630A9F79F3F09F4089558
:10343000290F311D97FD3A95F90162830895FC012A
:10344000329608962191261303C0DF0111971C9232
:10345000E817F907B9F708950C94051A0C941F1A88
:10346000029626E0FC0111922A95E9F70895089545
:1034700008950C94381A80916904843049F10E94AF
:10348000391A80E00E9407051092460288E190E018
:1034900020E40FB6F894A895809360000FBE2093A7
:1034A000600083B7817F846083BF83B7816083BFFF
:1034B0007894889583B78E7F83BF0FB6F894A895CC
:1034C00080916000886180936000109260000FBE60
:1034D00008950895CF930E94371A0E9468070E94AA
:1034E000691AC0E08C2F0E941407811105C0CF5FBC
:1034F000C430C1F7CF91089581E0FCCF08950C94BA
:103500007E1A0E945F130E94FB0E0E9407050C9416
:103510007F1A1F921FB61F9211248F939F93AF9310
:10352000BF9380914602811113C0809161049091F4
:103530006204A0916304B09164044196A11DB11D81
:103540008093610490936204A0936304B093640435
:10355000BF91AF919F918F911F901FBE1F901895A3
:1035600082E084BD93E095BD9AEF97BD80936E0095
:1035700008952FB7F8948091610490916204A0910E
:103580006304B09164042FBF08952FB7F89460913D
:1035900061047091620480916304909164042FBF70
:1035A00008959C014FB7F894809161049091620452
:1035B000A0916304B09164044FBF821B930B0895E4
:1035C00078941F921FB61F9211248F939F93AF93ED
:1035D000BF938091610490916204A0916304B091C3
:1035E00064040196A11DB11D80936104909362044F
:1035F000A0936304B0936404BF91AF919F918F91A6
:103600001F901FBE1F90189581E08093E00080E21C
:103610008093D8001092C9008FE19EE40197F1F7E2
:1036200000C0000087E090EBDC018093720490936F
:103630007304A0937404B093750488E19CE00FB602
:10364000F894A895809360000FBE90936000FFCF20
:1036500090939B0180939A01089580914F02089561
:103660000895CF93DF9300D00F92CDB7DEB790913E
:103670006904943019F589837B836A8382E080939F
:10368000E9008FEF9091E800815095FD06C095ED1F
:103690009A95F1F700008111F5CF8091E80085FF40
:1036A0000DC050E040E063E070E0CE0101960E9462
:1036B000271D8091E8008E778093E8000F900F908F
:1036C0000F90DF91CF910895BC0184E00C94311BE1
:1036D000BC0183E00C94311BCF93DF93EC0181E0BC
:1036E0008093E9008FEF9091E800815095FD06C02E
:1036F00095ED9A95F1F700008111F5CF8091E800E2
:1037000085FF14C050E040E068E070E0CE010E9408
:10371000271D8091E8008E778093E80088E0FE0105
:10372000A7E4B2E001900D928A95E1F7DF91CF9185
:10373000089580916804811109C00E94B71E0E94FB
:10374000141F8091E20084608093E200089510923B
:103750006804089508950895089542E061EC81E0B9
:103760000E94331E42E261EC82E00C94331E809191
:103770006B04833009F45FC030F48130C1F18230D2
:1037800009F49BC008958A3009F487C08B3009F48E
:103790006DC0893009F04EC080916A04813209F011
:1037A00049C080916E0490916F04029708F042C066
:1037B0008091E800877F8093E8008091E80082FF95
:1037C00035C09091F3008091F200029729F4809126
:1037D000F1008B7F813021F48091F10080934F02C2
:1037E0008091E8008B778093E8000C94671E8091AD
:1037F0006A04813AF9F48091E800877F8093E800B9
:1038000080916E0490916F04892B61F468E087E4E5
:1038100092E070E00E94761D8091E8008B778093A3
:10382000E800089560E090E080E0F3CF80916904C3
:103830008111C3CF089580916A04813AD9F78091AC
:103840006E0490916F04892BA9F78091E800877F1F
:103850008093E8008091E80080FFFCCF8091130105
:103860008093F1008091E8008E77BDCF80916A044B
:10387000813201F780916E0490916F04892BD1F60B
:103880008091E800877F8093E8000E94671E809106
:103890006C04809313010C945F1380916A0481324D
:1038A00049F68091E800877F8093E8000E94671EB8
:1038B00080916D0480935002089580916A04813A4A
:1038C00009F0B8CF8091E800877F8093E80080916D
:1038D000E80080FFFCCF80915002C2CF84B7877F81
:1038E00084BF0FB6F894A89580916000886180939A
:1038F0006000109260000FBE80E890E00FB6F89470
:1039000080936100909361000FBE0E94720F0E942D
:10391000B71E0E94141F8091E20084608093E20031
:1039200078940E949D210E94860F89E091E00E9478
:10393000F60E80916904853099F00E94910F0E94E3
:10394000820FF7CF0E943B1A80916704882341F0D1
:103950000E946A1A882321F00E94111D0E945F13A1
:1039600080916904853071F30E94811AE6CF0C942E
:10397000B91C292F33272330310519F168F4213080
:10398000310509F444C02230310509F445C090E006
:1039900080E030E020E025C02132310549F12232BB
:1039A0003105A9F780E490E027E437E0611571055F
:1039B000C1F082E390E025E137E06130710589F0E4
:1039C000E6CF99278130910581F0009729F0029781
:1039D000F1F6E0E9F6E002C0E4ECF6E0849190E074
:1039E0009F01FA01318320830895E6EAF6E0F6CFDD
:1039F00089E090E02AED36E06115710591F389E0E8
:103A000090E023EF36E06130710559F3C0CF82E1D9
:103A100090E023E037E0E5CF8BE390E028EC36E060
:103A2000E0CF80E189BD82E189BD09B400FEFDCF10
:103A30008091D8008F7D8093D8008091E0008260D3
:103A40008093E0008091E00081FDFCCF0895AF926B
:103A5000BF92CF92DF92FF920F931F93CF93DF938A
:103A60006C01EB018A010E94861EF82E811123C091
:103A70000115110539F0F80180819181C81BD90B1E
:103A8000C80ED91EB12CA12C2097A9F08091E80076
:103A900085FD22C08091E8008E778093E8000115B3
:103AA0001105A1F0F80180819181A80EB91EB182A3
:103AB000A08285E0F82E8F2DDF91CF911F910F917D
:103AC000FF90DF90CF90BF90AF9008950E94861E28
:103AD0008823D1F2F82EEFCFF60181916F01809308
:103AE000F1002197FFEFAF1ABF0ACECFFC01809102
:103AF00070049091710486179707A0F06115710505
:103B000029F49091E8009E779093E80090E0611589
:103B1000710551F4911108C08091E80082FF34C012
:103B200080E00895BC01F2CF809169048823C1F13F
:103B30008530C1F18091E80083FD30C08091E800BC
:103B400082FDEACF8091E80080FFE1CF8091F30011
:103B50002091F200382F6115710519F028303105D8
:103B600058F091E02830310509F090E02091E8000C
:103B70002E772093E800CBCF81918093F1006150A4
:103B800071092F5F3F4FE7CF80916904882341F08F
:103B9000853041F08091E80083FFBECF81E0089539
:103BA00082E0089583E00895FC0180917004909173
:103BB000710486179707A0F06115710529F48091AB
:103BC000E8008E778093E80090E06115710551F46C
:103BD000911108C08091E80082FF35C080E008950F
:103BE000BC01F2CF809169048823C9F18530C9F105
:103BF0008091E80083FD31C08091E80082FDEACF2A
:103C00008091E80080FFE1CF8091F3002091F200E5
:103C1000382F6115710519F02830310558F091E001
:103C20002830310509F090E08091E8008E7780938C
:103C3000E800CBCF84918093F100319661507109F7
:103C40002F5F3F4FE6CF80916904882341F0853094
:103C500041F08091E80083FFBDCF81E0089582E0CC
:103C6000089583E00895982F973028F08F708093FF
:103C7000E90081E008959093E900242F762F50E029
:103C8000981731F07091EC002091ED005091F00008
:103C900021FD02C09F5FE8CF3091EB003E7F309363
:103CA000EB003091ED003D7F3093ED003091EB0063
:103CB00031603093EB007093EC002093ED00509353
:103CC000F0002091EE0027FDE5CF80E0089580917F
:103CD0006A0487FF13C08091E80082FF06C08091CC
:103CE000E8008B778093E80004C08091690481111B
:103CF000F2CF0895809169048823D9F38091E80078
:103D000080FFF8CF8091E8008E77ECCF2091E4001F
:103D10003091E50095E6A9012091EC00822F817099
:103D200020FF06C08091E80080FF06C080E0089573
:103D30002091E80022FD1AC080916904882389F04F
:103D4000853089F08091EB0085FD0FC02091E40063
:103D50003091E50042175307F9F29150E1F684E003
:103D6000089582E0089583E0089581E008950E9417
:103D7000251F0E942D1FE0EEF0E08081816080838E
:103D8000E8EDF0E080818F77808319BCA7EDB0E08B
:103D90008C918E7F8C9380818F7E808310926804BB
:103DA00008950F931F93CF93DF930E94251F0E94C6
:103DB0002D1FC8EDD0E088818F7788838881806847
:103DC000888388818F7D888319BC10926904109242
:103DD0006504109267041092660400EE10E0F8018A
:103DE00080818B7F808388818160888342E060E06E
:103DF00080E00E94331EE1EEF0E080818E7F8083C0
:103E0000E2EEF0E080818160808380818860808341
:103E1000F80180818E7F8083888180618883DF9133
:103E2000CF911F910F910895E8EDF0E080818F7E92
:103E30008083E7EDF0E080818160808384E082BF51
:103E400081E0809368040C94D11EE8EDF0E080815D
:103E50008E7F80831092E20008951092DA00109213
:103E6000E10008951F920F920FB60F9211242F9325
:103E70003F934F935F936F937F938F939F93AF93F2
:103E8000BF93EF93FF938091E10082FF0BC080917D
:103E9000E20082FF07C08091E1008B7F8093E10008
:103EA0000E949C218091DA0080FF19C08091D80087
:103EB00080FF15C08091DA008E7F8093DA008091B8
:103EC000D90080FF96C080E189BD82E189BD09B437
:103ED00000FEFDCF81E0809369040E94991B8091D0
:103EE000E10080FF19C08091E20080FF15C0809141
:103EF000E2008E7F8093E2008091E20080618093F7
:103F0000E2008091D80080628093D80019BC85E0DF
:103F1000809369040E94AB1B8091E10084FF2BC059
:103F20008091E20084FF27C080E189BD82E189BDE4
:103F300089B5982F917080FFFBCF8091D8008F7D3D
:103F40008093D8008091E1008F7E8093E100809182
:103F5000E2008F7E8093E2008091E2008160809396
:103F6000E20080916504882309F449C084E08093CD
:103F700069040E94AC1B8091E10083FF29C08091FD
:103F8000E20083FF25C08091E100877F8093E100FC
:103F900082E080936904109265048091E1008E7F35
:103FA0008093E1008091E2008E7F8093E200809117
:103FB000E20080618093E20042E060E080E00E94E5
:103FC000331E8091F00088608093F0000E94AA1B4D
:103FD000FF91EF91BF91AF919F918F917F916F91E1
:103FE0005F914F913F912F910F900FBE0F901F90B7
:103FF000189519BC109269040E94A71B70CF80917C
:10400000E30087FD93E090936904B3CF1F920F9272
:104010000FB60F9211242F933F934F935F936F939B
:104020007F938F939F93AF93BF93CF93DF93EF9340
:10403000FF93D091E900DF708091EC00C82FC17030
:1040400080FDC0E81092E9008091F000877F8093A6
:10405000F00078940E944A201092E9008091F000CC
:1040600088608093F000CD2BCF70C093E900FF9162
:10407000EF91DF91CF91BF91AF919F918F917F9100
:104080006F915F914F913F912F910F900FBE0F90C5
:104090001F9018951F93CF93DF93CDB7DEB7AA97E4
:1040A0000FB6F894DEBF0FBECDBF8AE694E0209134
:1040B000F100FC012193CF01F4E082379F07B9F7AB
:1040C0000E94B71B8091E80083FF1EC180916A04A3
:1040D00090916B049A3008F017C1E92FF0E0EA598B
:1040E000FD4D0C94EC21803899F0823809F00CC118
:1040F00080916E048F70873008F006C18093E900CC
:104100008091EB0085FB882780F91092E90006C0BA
:104110008091660490916704911182609091E8000B
:10412000977F9093E8008093F1001092F1008091C6
:10413000E8008E77E5C0882309F4D3C0823009F007
:10414000E3C080916C048111D6C080916E048F70A1
:104150002FEF280F263008F0D7C08093E900209178
:10416000EB0020FFC8C0933031F48091EB008062F7
:104170008093EB00C0C09091EB0090619093EB00B6
:1041800021E030E001C0220F8A95EAF72093EA008F
:104190001092EA008091EB008860EACF8111B4C0F0
:1041A00010916C041F778091E3008078812B8093BD
:1041B000E3008091E800877F8093E8000E94671EFB
:1041C0008091E80080FFFCCF8091E30080688093BD
:1041D000E30082E0111183E08093690495C0805868
:1041E000823008F091C080916C0490916D048C3DF8
:1041F00023E09207A1F583E08A838AE289834FB79F
:10420000F894DE01139620E03EE051E2E32FF0E067
:1042100050935700E49120FF03C0E295EF703F5F99
:10422000EF708E2F90E0EA30C0F0C7968D939D938B
:104230002F5F243159F74FBF8091E800877F80932B
:10424000E8006AE270E0CE0101960E94761D80913E
:10425000E8008B778093E80057C0C096E7CF609165
:104260006E0470916F04AE014F5F5F4F0E94B71CE8
:10427000BC01892B09F448C09091E800977F909386
:10428000E80089819A810E94D41DE1CF8038E1F550
:104290008091E800877F8093E80080916504809397
:1042A000F10045CF811130C090916C04923060F5DF
:1042B0008091E800877F8093E800909365040E94D6
:1042C000671E80916504882311F084E005C0809109
:1042D000E30087FDFACF81E0809369040E94AD1B63
:1042E00013C080916C04813079F481E0933009F03F
:1042F00080E0809367041092E9008091E800877F56
:104300008093E8000E94671E8091E80083FF0AC046
:104310008091E800877F8093E8008091EB008062C5
:104320008093EB00AA960FB6F894DEBF0FBECDBF08
:10433000DF91CF911F9108950895CF9380916904E3
:104340008823A1F0C091E900CF709091EC00892FF3
:10435000817090FD80E8C82B1092E9008091E80000
:1043600083FD0E944A20CF70C093E900CF91089549
:10437000991B79E004C0991F961708F0961B881FB7
:104380007A95C9F780950895AA1BBB1B51E107C018
:10439000AA1FBB1FA617B70710F0A61BB70B881FD5
:1043A000991F5A95A9F780959095BC01CD01089564
:1043B00097FB072E16F4009407D077FD09D00E94D2
:1043C000C42107FC05D03EF4909581959F4F089538
:1043D000709561957F4F0895EE0FFF1F0590F49142
:1043E000E02D0994FB01DC0102C005900D924150C3
:1043F0005040D8F70895FB01DC0104C08D91019075
:10440000801921F441505040C8F7881B990B08953A
:10441000F999FECF92BD81BDF89A992780B508958C
:10442000A8E1B0E042E050E00C943C22262FF9993C
:10443000FECF92BD81BDF89A019700B4021639F003
:104440001FBA20BD0FB6F894FA9AF99A0FBE0895D4
:104450000396272F0E9417220E941622252F0E94C2
:104460001722242F0C9417220196272F0E9417221F
:104470000C941622DC01CB01FC01F999FECF06C099
:10448000F2BDE1BDF89A319600B40D924150504012
:10449000B8F70895F894FFCF471147119F119F1166
:1044A000F1117411741174110D129912A812A8123D
:1044B0006E136E13771377137913771377137713BC
:1044C0006E136E137E13771377137E1373209B2066
:1044D00084219B208421CE20EF208421462152215B
:1044E0000021007F2200033A022D1B6C1B301B6849
:1044F0001B641B01E200E900EA00B500B600B7004A
:10450000CD008301CC008A01920194012102230293
:1045100024022502260227022A02B300B4006F00FB
:104520007000818283F7F6F5F43136343500FF01EF
:1045300000010000FFFF0000010001FF009794C68A
:10454000660008101818100800E200E900EA00B53B
:1045500000B600B700CD008301CC008A019201941F
:10456000012102230224022502260227022A02B385
:0A45700000B4006F00700081828328
:00000001FF
